{
  "_format": "hh-sol-artifact-1",
  "contractName": "VehicleRegistry",
  "sourceName": "contracts/VehicleRegistry.sol",
  "abi": [
    {
      "inputs": [],
      "stateMutability": "nonpayable",
      "type": "constructor"
    },
    {
      "anonymous": false,
      "inputs": [
        {
          "indexed": true,
          "internalType": "string",
          "name": "vehicleId",
          "type": "string"
        },
        {
          "indexed": true,
          "internalType": "address",
          "name": "from",
          "type": "address"
        },
        {
          "indexed": true,
          "internalType": "address",
          "name": "to",
          "type": "address"
        }
      ],
      "name": "OwnershipTransferred",
      "type": "event"
    },
    {
      "anonymous": false,
      "inputs": [
        {
          "indexed": true,
          "internalType": "string",
          "name": "vehicleId",
          "type": "string"
        },
        {
          "indexed": true,
          "internalType": "address",
          "name": "owner",
          "type": "address"
        }
      ],
      "name": "VehicleRegistered",
      "type": "event"
    },
    {
      "inputs": [],
      "name": "admin",
      "outputs": [
        {
          "internalType": "address",
          "name": "",
          "type": "address"
        }
      ],
      "stateMutability": "view",
      "type": "function"
    },
    {
      "inputs": [
        {
          "internalType": "address",
          "name": "newAdmin",
          "type": "address"
        }
      ],
      "name": "changeAdmin",
      "outputs": [],
      "stateMutability": "nonpayable",
      "type": "function"
    },
    {
      "inputs": [
        {
          "internalType": "string",
          "name": "vehicleId",
          "type": "string"
        }
      ],
      "name": "getVehicle",
      "outputs": [
        {
          "internalType": "string",
          "name": "_vehicleId",
          "type": "string"
        },
        {
          "internalType": "address",
          "name": "_owner",
          "type": "address"
        },
        {
          "internalType": "string",
          "name": "_model",
          "type": "string"
        },
        {
          "internalType": "string",
          "name": "_manufacturer",
          "type": "string"
        },
        {
          "internalType": "uint256",
          "name": "_registeredAt",
          "type": "uint256"
        },
        {
          "internalType": "bool",
          "name": "_exists",
          "type": "bool"
        },
        {
          "internalType": "string",
          "name": "_ipfsDoc",
          "type": "string"
        }
      ],
      "stateMutability": "view",
      "type": "function"
    },
    {
      "inputs": [
        {
          "internalType": "string",
          "name": "vehicleId",
          "type": "string"
        }
      ],
      "name": "isRegistered",
      "outputs": [
        {
          "internalType": "bool",
          "name": "",
          "type": "bool"
        }
      ],
      "stateMutability": "view",
      "type": "function"
    },
    {
      "inputs": [
        {
          "internalType": "address",
          "name": "",
          "type": "address"
        }
      ],
      "name": "ownerVehicleCount",
      "outputs": [
        {
          "internalType": "uint256",
          "name": "",
          "type": "uint256"
        }
      ],
      "stateMutability": "view",
      "type": "function"
    },
    {
      "inputs": [
        {
          "internalType": "string",
          "name": "vehicleId",
          "type": "string"
        },
        {
          "internalType": "address",
          "name": "owner",
          "type": "address"
        },
        {
          "internalType": "string",
          "name": "model",
          "type": "string"
        },
        {
          "internalType": "string",
          "name": "manufacturer",
          "type": "string"
        },
        {
          "internalType": "string",
          "name": "ipfsDoc",
          "type": "string"
        }
      ],
      "name": "registerVehicle",
      "outputs": [],
      "stateMutability": "nonpayable",
      "type": "function"
    },
    {
      "inputs": [
        {
          "internalType": "string",
          "name": "vehicleId",
          "type": "string"
        },
        {
          "internalType": "address",
          "name": "newOwner",
          "type": "address"
        }
      ],
      "name": "transferOwnership",
      "outputs": [],
      "stateMutability": "nonpayable",
      "type": "function"
    }
  ],
  "bytecode": "0x608060405234801561001057600080fd5b50336000806101000a81548173ffffffffffffffffffffffffffffffffffffffff021916908373ffffffffffffffffffffffffffffffffffffffff1602179055506119bf806100606000396000f3fe608060405234801561001057600080fd5b506004361061007d5760003560e01c8063c0e793c21161005b578063c0e793c2146100f0578063c1cadce91461010c578063c822d7f01461013c578063f851a4401461016c5761007d565b8063047fd5791461008257806323f12956146100b85780638f283970146100d4575b600080fd5b61009c60048036038101906100979190610e6e565b61018a565b6040516100af9796959493929190610fc0565b60405180910390f35b6100d260048036038101906100cd9190611077565b6104a2565b005b6100ee60048036038101906100e99190611173565b6108a6565b005b61010a600480360381019061010591906111a0565b6109e6565b005b61012660048036038101906101219190611173565b610d88565b6040516101339190611200565b60405180910390f35b61015660048036038101906101519190610e6e565b610da0565b604051610163919061121b565b60405180910390f35b610174610ddb565b6040516101819190611236565b60405180910390f35b606060006060806000806060600060018a8a6040516101aa929190611290565b908152602001604051809103902090508060050160009054906101000a900460ff1661020b576040517f08c379a0000000000000000000000000000000000000000000000000000000008152600401610202906112f5565b60405180910390fd5b806000018160010160009054906101000a900473ffffffffffffffffffffffffffffffffffffffff16826002018360030184600401548560050160009054906101000a900460ff168660060186805461026390611344565b80601f016020809104026020016040519081016040528092919081815260200182805461028f90611344565b80156102dc5780601f106102b1576101008083540402835291602001916102dc565b820191906000526020600020905b8154815290600101906020018083116102bf57829003601f168201915b505050505096508480546102ef90611344565b80601f016020809104026020016040519081016040528092919081815260200182805461031b90611344565b80156103685780601f1061033d57610100808354040283529160200191610368565b820191906000526020600020905b81548152906001019060200180831161034b57829003601f168201915b5050505050945083805461037b90611344565b80601f01602080910402602001604051908101604052809291908181526020018280546103a790611344565b80156103f45780601f106103c9576101008083540402835291602001916103f4565b820191906000526020600020905b8154815290600101906020018083116103d757829003601f168201915b5050505050935080805461040790611344565b80601f016020809104026020016040519081016040528092919081815260200182805461043390611344565b80156104805780601f1061045557610100808354040283529160200191610480565b820191906000526020600020905b81548152906001019060200180831161046357829003601f168201915b5050505050905097509750975097509750975097505092959891949750929550565b60008054906101000a900473ffffffffffffffffffffffffffffffffffffffff1673ffffffffffffffffffffffffffffffffffffffff163373ffffffffffffffffffffffffffffffffffffffff1614610530576040517f08c379a0000000000000000000000000000000000000000000000000000000008152600401610527906113c1565b60405180910390fd5b60018989604051610542929190611290565b908152602001604051809103902060050160009054906101000a900460ff16156105a1576040517f08c379a00000000000000000000000000000000000000000000000000000000081526004016105989061142d565b60405180910390fd5b6040518060e001604052808a8a8080601f016020809104026020016040519081016040528093929190818152602001838380828437600081840152601f19601f8201169050808301925050505050505081526020018873ffffffffffffffffffffffffffffffffffffffff16815260200187878080601f016020809104026020016040519081016040528093929190818152602001838380828437600081840152601f19601f82011690508083019250505050505050815260200185858080601f016020809104026020016040519081016040528093929190818152602001838380828437600081840152601f19601f82011690508083019250505050505050815260200142815260200160011515815260200183838080601f016020809104026020016040519081016040528093929190818152602001838380828437600081840152601f19601f8201169050808301925050505050505081525060018a8a60405161070f929190611290565b908152602001604051809103902060008201518160000190816107329190611628565b5060208201518160010160006101000a81548173ffffffffffffffffffffffffffffffffffffffff021916908373ffffffffffffffffffffffffffffffffffffffff160217905550604082015181600201908161078f9190611628565b5060608201518160030190816107a59190611628565b506080820151816004015560a08201518160050160006101000a81548160ff02191690831515021790555060c08201518160060190816107e59190611628565b509050506001600260008973ffffffffffffffffffffffffffffffffffffffff1673ffffffffffffffffffffffffffffffffffffffff16815260200190815260200160002060008282546108399190611729565b925050819055508673ffffffffffffffffffffffffffffffffffffffff168989604051610867929190611290565b60405180910390207f0cfba914b5106da2fbba725502188ab817f680c8fe51c318c8bf6896a59f7fbd60405160405180910390a3505050505050505050565b60008054906101000a900473ffffffffffffffffffffffffffffffffffffffff1673ffffffffffffffffffffffffffffffffffffffff163373ffffffffffffffffffffffffffffffffffffffff1614610934576040517f08c379a000000000000000000000000000000000000000000000000000000000815260040161092b906113c1565b60405180910390fd5b600073ffffffffffffffffffffffffffffffffffffffff168173ffffffffffffffffffffffffffffffffffffffff16036109a3576040517f08c379a000000000000000000000000000000000000000000000000000000000815260040161099a906117a9565b60405180910390fd5b806000806101000a81548173ffffffffffffffffffffffffffffffffffffffff021916908373ffffffffffffffffffffffffffffffffffffffff16021790555050565b82828080601f016020809104026020016040519081016040528093929190818152602001838380828437600081840152601f19601f82011690508083019250505050505050600181604051610a3b91906117fa565b908152602001604051809103902060050160009054906101000a900460ff16610a99576040517f08c379a0000000000000000000000000000000000000000000000000000000008152600401610a909061185d565b60405180910390fd5b600181604051610aa991906117fa565b908152602001604051809103902060010160009054906101000a900473ffffffffffffffffffffffffffffffffffffffff1673ffffffffffffffffffffffffffffffffffffffff163373ffffffffffffffffffffffffffffffffffffffff1614610b48576040517f08c379a0000000000000000000000000000000000000000000000000000000008152600401610b3f906118c9565b60405180910390fd5b600073ffffffffffffffffffffffffffffffffffffffff168273ffffffffffffffffffffffffffffffffffffffff1603610bb7576040517f08c379a0000000000000000000000000000000000000000000000000000000008152600401610bae90611935565b60405180910390fd5b600060018585604051610bcb929190611290565b908152602001604051809103902060010160009054906101000a900473ffffffffffffffffffffffffffffffffffffffff1690508260018686604051610c12929190611290565b908152602001604051809103902060010160006101000a81548173ffffffffffffffffffffffffffffffffffffffff021916908373ffffffffffffffffffffffffffffffffffffffff1602179055506001600260008373ffffffffffffffffffffffffffffffffffffffff1673ffffffffffffffffffffffffffffffffffffffff1681526020019081526020016000206000828254610cb19190611955565b925050819055506001600260008573ffffffffffffffffffffffffffffffffffffffff1673ffffffffffffffffffffffffffffffffffffffff1681526020019081526020016000206000828254610d089190611729565b925050819055508273ffffffffffffffffffffffffffffffffffffffff168173ffffffffffffffffffffffffffffffffffffffff168686604051610d4d929190611290565b60405180910390207f6840904f5b31827f74e1497360da245f56e530c8c3de3163a2d31f11493273c660405160405180910390a45050505050565b60026020528060005260406000206000915090505481565b600060018383604051610db4929190611290565b908152602001604051809103902060050160009054906101000a900460ff16905092915050565b60008054906101000a900473ffffffffffffffffffffffffffffffffffffffff1681565b600080fd5b600080fd5b600080fd5b600080fd5b600080fd5b60008083601f840112610e2e57610e2d610e09565b5b8235905067ffffffffffffffff811115610e4b57610e4a610e0e565b5b602083019150836001820283011115610e6757610e66610e13565b5b9250929050565b60008060208385031215610e8557610e84610dff565b5b600083013567ffffffffffffffff811115610ea357610ea2610e04565b5b610eaf85828601610e18565b92509250509250929050565b600081519050919050565b600082825260208201905092915050565b60005b83811015610ef5578082015181840152602081019050610eda565b60008484015250505050565b6000601f19601f8301169050919050565b6000610f1d82610ebb565b610f278185610ec6565b9350610f37818560208601610ed7565b610f4081610f01565b840191505092915050565b600073ffffffffffffffffffffffffffffffffffffffff82169050919050565b6000610f7682610f4b565b9050919050565b610f8681610f6b565b82525050565b6000819050919050565b610f9f81610f8c565b82525050565b60008115159050919050565b610fba81610fa5565b82525050565b600060e0820190508181036000830152610fda818a610f12565b9050610fe96020830189610f7d565b8181036040830152610ffb8188610f12565b9050818103606083015261100f8187610f12565b905061101e6080830186610f96565b61102b60a0830185610fb1565b81810360c083015261103d8184610f12565b905098975050505050505050565b61105481610f6b565b811461105f57600080fd5b50565b6000813590506110718161104b565b92915050565b600080600080600080600080600060a08a8c03121561109957611098610dff565b5b60008a013567ffffffffffffffff8111156110b7576110b6610e04565b5b6110c38c828d01610e18565b995099505060206110d68c828d01611062565b97505060408a013567ffffffffffffffff8111156110f7576110f6610e04565b5b6111038c828d01610e18565b965096505060608a013567ffffffffffffffff81111561112657611125610e04565b5b6111328c828d01610e18565b945094505060808a013567ffffffffffffffff81111561115557611154610e04565b5b6111618c828d01610e18565b92509250509295985092959850929598565b60006020828403121561118957611188610dff565b5b600061119784828501611062565b91505092915050565b6000806000604084860312156111b9576111b8610dff565b5b600084013567ffffffffffffffff8111156111d7576111d6610e04565b5b6111e386828701610e18565b935093505060206111f686828701611062565b9150509250925092565b60006020820190506112156000830184610f96565b92915050565b60006020820190506112306000830184610fb1565b92915050565b600060208201905061124b6000830184610f7d565b92915050565b600081905092915050565b82818337600083830152505050565b60006112778385611251565b935061128483858461125c565b82840190509392505050565b600061129d82848661126b565b91508190509392505050565b7f56656869636c65206e6f7420666f756e64000000000000000000000000000000600082015250565b60006112df601183610ec6565b91506112ea826112a9565b602082019050919050565b6000602082019050818103600083015261130e816112d2565b9050919050565b7f4e487b7100000000000000000000000000000000000000000000000000000000600052602260045260246000fd5b6000600282049050600182168061135c57607f821691505b60208210810361136f5761136e611315565b5b50919050565b7f4f6e6c792061646d696e00000000000000000000000000000000000000000000600082015250565b60006113ab600a83610ec6565b91506113b682611375565b602082019050919050565b600060208201905081810360008301526113da8161139e565b9050919050565b7f56656869636c6520616c72656164792065786973747300000000000000000000600082015250565b6000611417601683610ec6565b9150611422826113e1565b602082019050919050565b600060208201905081810360008301526114468161140a565b9050919050565b7f4e487b7100000000000000000000000000000000000000000000000000000000600052604160045260246000fd5b60008190508160005260206000209050919050565b60006020601f8301049050919050565b600082821b905092915050565b6000600883026114de7fffffffffffffffffffffffffffffffffffffffffffffffffffffffffffffffff826114a1565b6114e886836114a1565b95508019841693508086168417925050509392505050565b6000819050919050565b600061152561152061151b84610f8c565b611500565b610f8c565b9050919050565b6000819050919050565b61153f8361150a565b61155361154b8261152c565b8484546114ae565b825550505050565b600090565b61156861155b565b611573818484611536565b505050565b5b818110156115975761158c600082611560565b600181019050611579565b5050565b601f8211156115dc576115ad8161147c565b6115b684611491565b810160208510156115c5578190505b6115d96115d185611491565b830182611578565b50505b505050565b600082821c905092915050565b60006115ff600019846008026115e1565b1980831691505092915050565b600061161883836115ee565b9150826002028217905092915050565b61163182610ebb565b67ffffffffffffffff81111561164a5761164961144d565b5b6116548254611344565b61165f82828561159b565b600060209050601f8311600181146116925760008415611680578287015190505b61168a858261160c565b8655506116f2565b601f1984166116a08661147c565b60005b828110156116c8578489015182556001820191506020850194506020810190506116a3565b868310156116e557848901516116e1601f8916826115ee565b8355505b6001600288020188555050505b505050505050565b7f4e487b7100000000000000000000000000000000000000000000000000000000600052601160045260246000fd5b600061173482610f8c565b915061173f83610f8c565b9250828201905080821115611757576117566116fa565b5b92915050565b7f5a65726f2061646d696e00000000000000000000000000000000000000000000600082015250565b6000611793600a83610ec6565b915061179e8261175d565b602082019050919050565b600060208201905081810360008301526117c281611786565b9050919050565b60006117d482610ebb565b6117de8185611251565b93506117ee818560208601610ed7565b80840191505092915050565b600061180682846117c9565b915081905092915050565b7f56656869636c65206e6f74207265676973746572656400000000000000000000600082015250565b6000611847601683610ec6565b915061185282611811565b602082019050919050565b600060208201905081810360008301526118768161183a565b9050919050565b7f4e6f742076656869636c65206f776e6572000000000000000000000000000000600082015250565b60006118b3601183610ec6565b91506118be8261187d565b602082019050919050565b600060208201905081810360008301526118e2816118a6565b9050919050565b7f496e76616c6964206e6577206f776e6572000000000000000000000000000000600082015250565b600061191f601183610ec6565b915061192a826118e9565b602082019050919050565b6000602082019050818103600083015261194e81611912565b9050919050565b600061196082610f8c565b915061196b83610f8c565b9250828203905081811115611983576119826116fa565b5b9291505056fea264697066735822122065d7b58332cc2149589d3510b3a8bbefbe16214565fa2981de9dc2382160126b64736f6c63430008130033",
  "linkReferences": {},
  "deployedLinkReferences": {}
}